:020000040800F2
:1000000000200020450F0008410F0008410F0008A4
:1000100000000000000000000000000000000000E0
:10002000000000000000000000000000410F000878
:100030000000000000000000410F0008510B000804
:10004000410F0008410F0008410F0008410F000850
:10005000410F0008410F0008410F0008410F000840
:1000600000000000410F0008410F0008410F000888
:10007000410F0008410F0008410F00080000000078
:10008000410F00080000000000000000410F0008C0
:1000900000000000410F0008410F0008410F000858
:1000A000410F0008410F0008410F0008390F0008F8
:0800B000ED0D00080000000046
:1000B800002243088B4274D303098B425FD3030A9F
:1000C8008B4244D3030B8B4228D3030C8B420DD3B2
:1000D800FF22090212BA030C8B4202D31212090240
:1000E80065D0030B8B4219D300E0090AC30B8B427E
:1000F80001D3CB03C01A5241830B8B4201D38B032C
:10010800C01A5241430B8B4201D34B03C01A5241D0
:10011800030B8B4201D30B03C01A5241C30A8B4213
:1001280001D3CB02C01A5241830A8B4201D38B02FE
:10013800C01A5241430A8B4201D34B02C01A5241A2
:10014800030A8B4201D30B02C01A5241CDD2C30914
:100158008B4201D3CB01C01A524183098B4201D390
:100168008B01C01A524143098B4201D34B01C01A7B
:10017800524103098B4201D30B01C01A5241C308F3
:100188008B4201D3CB00C01A524183088B4201D362
:100198008B00C01A524143088B4201D34B00C01A4E
:1001A8005241411A00D20146524110467047FFE7BA
:1001B80001B5002000F0F0F802BDC0460029F7D0D4
:1001C80076E7704703460B437FD4002243088B42EF
:1001D80074D303098B425FD3030A8B4244D3030BC6
:1001E8008B4228D3030C8B420DD3FF22090212BA8B
:1001F800030C8B4202D31212090265D0030B8B4207
:1002080019D300E0090AC30B8B4201D3CB03C01AF0
:100218005241830B8B4201D38B03C01A5241430BCB
:100228008B4201D34B03C01A5241030B8B4201D3BB
:100238000B03C01A5241C30A8B4201D3CB02C01A26
:100248005241830A8B4201D38B02C01A5241430A9E
:100258008B4201D34B02C01A5241030A8B4201D38D
:100268000B02C01A5241CDD2C3098B4201D3CB0134
:10027800C01A524183098B4201D38B01C01A5241E3
:1002880043098B4201D34B01C01A524103098B42E7
:1002980001D30B01C01A5241C3088B4201D3CB00D2
:1002A800C01A524183088B4201D38B00C01A5241B5
:1002B80043088B4201D34B00C01A5241411A00D265
:1002C80001465241104670475DE0CA0F00D04942CE
:1002D800031000D34042534000229C4603098B423E
:1002E8002DD3030A8B4212D3FC22890112BA030AC6
:1002F8008B420CD3890192118B4208D38901921148
:100308008B4204D389013AD0921100E08909C309CC
:100318008B4201D3CB01C01A524183098B4201D3CE
:100328008B01C01A524143098B4201D34B01C01AB9
:10033800524103098B4201D30B01C01A5241C30831
:100348008B4201D3CB00C01A524183088B4201D3A0
:100358008B00C01A5241D9D243088B4201D34B00BB
:10036800C01A5241411A00D20146634652415B10FD
:10037800104601D34042002B00D5494270476346DE
:100388005B1000D3404201B5002000F005F802BD23
:100398000029F8D016E770477047C046F0B58BB013
:1003A80000F0B6FB00F074F900F0D0F900F01CFC86
:1003B8000A2000F0D7FB984800F073FC00F088FA98
:1003C80000F014FD00F082FB944800F0DBFF0324EA
:1003D80000F096FB924800F005FE002808D100F0D6
:1003E8008FFB8F4800F02CFE002813D08D480DE0BD
:1003F8008D4800F056FCFA20013C4000E4B200F0C1
:10040800B1FB002CE4D100F07BFB884800F049FCEC
:10041800002703E0864800F044FC012700F09CFB1D
:10042800029000F099FB039000F096FB069000F014
:1004380093FB00230490059300F08EFB0400002F2B
:1004480023D0FA210298890000F096FB002833D0C7
:10045800734D280000F018FE0730C0B2072807D8EF
:100468008523C34001221F0002941740134223D161
:10047800704800F016FC222200216F4801F060F855
:1004880000232D352B70049402946C49049800F0D5
:1004980073FB071E10D000F033FB614800F0A2FD8B
:1004A800002805D15E4800F0CBFD002800D19CE073
:1004B800002700F025FB0494002206ABDA8100F047
:1004C800BBFC002800D095E05D4B544E07933300E9
:1004D80060331B88834217D00521706E00F04CFBF7
:1004E800002811D00E2506ABED182A0030004C4923
:1004F80000F073FF2B88002B06D0022000F032FB9F
:100508002988079800F0C4FC454B64211B78042B0C
:1005180001D0FA214900039800F02EFB051E06D0F1
:10052800059B002B71D100F0A3F905950394FA21DE
:100538000698C90000F020FB002853D0414B384DE5
:100548001B78002B4DD0404800F0ABFB3F4E69882C
:1005580001230A223E48009600F0C4FBA988012323
:100568000A223C48009600F0BDFBE98801230A22D4
:100578003948009600F0B6FB384B29890A223848DA
:100588000093012300F0AEFB1623E95E354B64228D
:1005980035480093012300F0A5FB1823E95E334B8F
:1005A8000A2233480093012300F09CFB1A23E95EDA
:1005B8000A2201232F48009600F094FB1C23E95ED1
:1005C8000A2201232C48009600F08CFBE98B2B4A69
:1005D8002B482C3500F06BFB2A4A29782A4800F072
:1005E80066FB069400F08CFA26E7284800F059FBD1
:1005F80002945EE700F02CFC050000F0ADFA29003B
:100608000200064800F0C6FE59E700F036F900235C
:10061800039405938BE7C0467C190008000000206E
:100628006C000020E5190008A619000890190008B8
:10063800C7190008FB1900086E0000208813000085
:100648002000002099000020211A0008531A0008F1
:100658002A1A0008331A00083C1A00084D1A000824
:10066800451A00085D1A0008571A00086D1A000894
:10067800651A0008751A00087C1A0008831A000811
:10068800891A0008901A0008941A00080C1A000821
:100698008022284B5200196810B50A4380211A603D
:1006A800254AC9001868084236D1013A002AF9D10A
:1006B800012040421FE08021106849000143116079
:1006C8001A681E490A401A60802292041968114269
:1006D800FCD11B4ADA608022196852040A4380213F
:1006E8001A60154A89041868084205D1013A002A97
:1006F800F9D1DDE7002010BD072299689143053A3A
:100708000A439A6010220C4B0E4908681042F1D136
:10071800013B002BF9D1CBE7072404210A4A1068D2
:10072800A04301431160116821400429C3D0082067
:10073800BFE7C04600100240A0860100FFFFFFFE91
:100748000208003008100240002002400322414BFA
:1007580010B5596B0C240A435A635B6BA023F02134
:10076800DB051A688A431A60A022186810431860CB
:100778005868A0435860986888439860986802430E
:100788009A60DA688A43DA604022D9680A43DA60F4
:100798001A6A31490A401A628822196A52010A43C0
:1007A8001A621A682D490A401A6080221968520094
:1007B8000A4310211A605A688A435A605A698A4360
:1007C8005A6127491A680A401A60A02218689204D8
:1007D80010431860C0205C68400120435860986846
:1007E800C02408409860986802439A60DA680A4012
:1007F800DA60A022D96852040A43DA605A6A1949B1
:100808000A405A62CC22596AD2020A435A62164BEB
:1008180016491A680A401A60A02218681202104382
:1008280018605868A04358609868084098609868AD
:1008380002439A60DA680A40DA608022D968D201F5
:100848000A43DA601A6A1202120A1A621A6A1A62E9
:1008580010BDC04600100240FF00FFFFFFFCFFFF75
:10086800FFFF3FFCFF0FF0FF00040050FF0FFFFFEA
:10087800A0231022DB059A617047A0238022DB05A4
:1008880052039A61704700001022074B00209969B3
:10089800114208D0D96903380A43DA6180225968BD
:1008A800D2010A435A60704700580040064B074A75
:1008B8001168084205D1013B002BF9D101204042C3
:1008C80070470020FCE7C046881300001858004015
:1008D80080220D4BD203D96B1143D963D96BD96AE6
:1008E8000A43DA62DA6A09490A40DA620122084BE5
:1008F800196891431960074919610021196019683D
:100908000A431A607047C04600100240FFFFBFFF4D
:10091800005800401F193290F8B5A024E405236858
:10092800104E802733402360802309252268DB038B
:10093800134323603F010120A76100F013F98023CE
:10094800013D1B050120A361EDB200F00BF9002D5C
:10095800F1D1236833402360802322681B041343AA
:100968002360F8BDFFFF3FFF012370B51D4C5B42BC
:10097800E361A36906000D001B0404D5FFF7CCFF53
:100988000A2000F0EFF86068174B76001840174B04
:10099800304303436360802362689B011343022052
:1009A8006360FFF783FF002802D00320404270BD38
:1009B800FFF76AFF0028F8D12B0AA3620230FFF77D
:1009C80075FF0028F1D1FFF75FFF0028EDD1EDB2E8
:1009D800A5622030FFF76AFF2023E2691343E36131
:1009E800E5E7C0460058004000F800FD000002029C
:1009F800F7B50E001D000192002A5DD0002B5BD0D8
:100A080001272E4C7F42E7614200636800922C4A1E
:100A180002201340009A13432A4A1343802263603A
:100A28006368920113436360FFF740FF002802D018
:100A3800032040423FE0FFF727FF0028F8D1330AA0
:100A4800A3620230FFF732FF0028F1D1FFF71CFF45
:100A58000028EDD1F6B2A6622030FFF727FF202349
:100A6800E2691343E3610028E2D1143000F07AF818
:100A7800E7616368124A019E13402A041343009AEF
:100A880075191343104A1343802263606368920107
:100A9800134363600420FFF709FF0028C8D1636A85
:100AA80033700136AE42F5D12030FFF7FFFE202328
:100AB800E2691343E361FEBD0420BAE70058004031
:100AC80000F800FD0000020200040002084B094A79
:100AD8001A60094A1A6004225A60FA2292009A603F
:100AE8000322D9681142FCD1044A1A607047C046F3
:100AF80000300040CCCC000055550000AAAA0000E8
:100B0800014B024A1A60704700300040AAAA000050
:100B1800C0210A480A4B0B4A4360136A09061B02A4
:100B28001B0A0B4313620023836007330360136AB5
:100B38001B021B0A194311627047C04610E000E00F
:100B4800FFF9000000ED00E0024A1368013313606A
:100B58007047C046B8000020014B18687047C0466F
:100B6800B8000020034A116813685B1A8342FBD35C
:100B78007047C046B8000020034B1B681B1A0020B2
:100B88008B4240417047C046B8000020F0B50024B1
:100B980005000E0085B0A04206D130234C700B70C2
:100BA8000134200005B0F0BD28000A21FFF706FB3C
:100BB8002700303101ABD95528000A21FFF778FA10
:100BC80001342F00E4B20500092FEDD8320001AB43
:100BD8001B1931198A4202D100233355E1E7013B41
:100BE800187810700132F5E780220E4B9202D96B0B
:100BF800C7200A438B21DA630022DB6B0A4B89008A
:100C08001A60D9605A609A6009321A60074B8000EE
:100C18001958F63291437F3A0A431A5080225205F6
:100C28001A607047001002400044004000E100E0F4
:100C38000200F0B500280ED000240E4E0E4DA2B2D0
:100C4800914206D9FF276B8801333B40AF88BB42EE
:100C580003D1002A07D11000F0BD6A88075D6B80B8
:100C6800B7540134EBE780230449086803430B6059
:100C7800F1E7C046020100200002002000440040C5
:100C88000223002110B5FF33425C002A07D001314E
:100C98009942F9D180214900FFF7CAFF10BD89B2F6
:100CA800FAE710B5002801D0FFF7EAFF10BD30B50C
:100CB80085B00C001500FFF7F4FF002120006C46FA
:100CC800884203DA2D234042237001316118FFF76F
:100CD8005DFF2000FFF7D4FF2800FFF7E2FF05B013
:100CE80030BD0000F0B50F0016001C0089B0002AC6
:100CF8004AD0032B48D8FFF7D4FF31003800FFF75C
:100D080047FB05000191002F04DA002802D123488F
:100D1800FFF7B6FFEB17E818584005A9FFF736FFAD
:100D2800002302AA0C3213543D409D4202DA1B48AC
:100D3800FFF7A6FF05A8FFF7A3FF002C21D018484E
:100D4800FFF79EFF019BA100DA179B185340154A35
:100D580002AD885831005843FFF7AAF92900FFF778
:100D680015FF30260023211A03AA99420EDC00231E
:100D78005118DEB2B0420CD8002310001355FFF70B
:100D88007FFF0E98FFF78DFF09B0F0BDD6540133F1
:100D9800EBE7EE5CCE540133EBE7C0469D1A000842
:100DA8009F1A0008A41A000880210B4A30B5D3699D
:100DB8000B420CD0094B0A489D885C88A54207D095
:100DC8009988415C91629A880132D2B29A8030BD8A
:100DD80013688B431360FAE70044004000020020C8
:100DE8000201002010B5FFF7DFFF10BD80220E4B77
:100DF800D201196CC6200A431A6400221B6C0B49E5
:100E08000B4B80001A60D96080215A609A602D329D
:100E18001A60084AC90513581B021B0A0B431350D2
:100E280080231B0513607047001002400B1A000056
:100E38000038014000E100E0034BD88F034BDB8F03
:100E4800C01A3F2318407047C0000020C20000208D
:100E580010B5084B084A991CD48FC98F00208C42C2
:100E680006D0D18F585C3F21D38F01330B40D387F5
:100E780010BDC046BE000020C2000020024B034A3D
:100E8800DB8FD3877047C046C0000020C200002017
:100E980070B5002813D0002280260D4C0D4B218000
:100EA80095B2A9420CD84022D9691142FCD00E2231
:100EB800196A0A431A6200232380FFF7DFFF70BD17
:100EC800DD693542FCD0855C01329D62E8E7C046A9
:100ED800BC00002000380140114A30B5D3699B0698
:100EE80007D5104B556A198800290AD01988013985
:100EF80019800E23D169194202D0116A0B4313627B
:100F080030BD3F2408490948CB8F01332340041DD5
:100F1800E48F9C42EDD0CC8FCB870555E9E7C046DE
:100F280000380140BC000020C0000020BE000020A6
:100F380010B5FFF7D1FF10BDFEE7000010B5094A54
:100F4800094B0A498B4207D30021094B094A9342AE
:100F580005D3FFF723FAFEE701CA01C3F2E702C38C
:100F6800F5E7C046B41A0008000000200000002081
:100F780000000020080200200378054ADB43DBB2AA
:100F88004178D35C4B40DBB2D05CC0B27047C046FE
:100F98007C16000802002C321378042B03D9042392
:100FA8000370080070470133DBB21370052BF8D1CA
:100FB800F5E773B5032504004D4301AE45192378C1
:100FC8003000337063787370FFF7D6FFA3789842C8
:100FD80004D10334AC42F2D1002076BD0220404255
:100FE800FBE7000010B504008CB0002822D04C228A
:100FF800002100F0A5FA002364202370FFF7B2FD5A
:101008000E4930236A466B20FFF7F2FC011E04D01C
:101018002000FFF7BFFF0CB010BD10216846FFF796
:10102800C8FF002802D002214942F1E70123A08528
:101038002370F0E704204042EDE7C04614D00000DA
:1010480070B5051E1BD00378012B01D0042B19D1D4
:1010580021216B20FFF788FC041E06D00100280020
:10106800FFF798FF0400200070BD3220FFF77AFDDB
:1010780002232B70FFF770FDAC856862F3E7042448
:101088006442F0E70524FBE7F0B5050097B00028B7
:1010980000D1FAE003789A1E012A00D9F8E0022B61
:1010A80007D17D49406AFFF767FD002801D0032377
:1010B8002B700AAC7949032322006B20FFF798FCB8
:1010C800011E06D02800FFF765FF0400200017B0B6
:1010D800F0BD23880FAE33803000FFF74DFFA378B3
:1010E8006778984202D002214942EBE7012F00D0ED
:1010F800D0E0C0211B23890032006B20FFF778FC69
:10110800011EDFD109213000FFF753FF0028EAD183
:1011180028001B2231002E3000F058FA60490F23B6
:101128006B200BAAFFF764FC011ECBD105210BA88D
:10113800FFF73FFF041ED6D123230AAA9B181A786B
:101148005B7831881B0213430793738A0AAADBBAB8
:10115800019329239B181A785B7849BA1B02134319
:101168000200DBBA0493338B89B25BBA9BB2029359
:101178004C4BB7898B42424108924B4AFFBAB81888
:10118800431E984184461000049B9B185A1E9341A5
:10119800019A1218501E82411A4003922200414BB4
:1011A8000298834262410992994266D817220AAB93
:1011B800D21813785278F08812021A4353BA069359
:1011C8001D230AAA9B181E785B7840BA1B0233437A
:1011D8005BBA0593089BAE1CB3776346039AF37713
:1011E800EB1CDA77099AB31CDA77069B698073805F
:1011F800059BB080F3802D4B9F4243D0079B142161
:10120800D8BAFEF7DFFF039BEF822883002B02D1B9
:10121800039B01930493019B224A6B83049BAB833A
:10122800029B934201D900230293029B0BAAB3832A
:10123800138800275BBA33810AABD9791B7A778286
:101248001B020B435BBA7381D3880AA95BBAB381CB
:101258000D235B1819785B781B020B435BBAF3818B
:10126800938901225BBA33822B002D331A70FFF762
:1012780073FCA8622C352F7028E721002000069403
:101288000594A7E700273800BDE7042464421DE75A
:101298000524FBE70724F9E760EA000002020000E2
:1012A80016030000FDFF00000180FFFFFF7F000024
:1012B800F7B5061E019106D00024FF252348019AA0
:1012C800A3B29A4200D8FEBD335D214958400200BE
:1012D800A8432A401202000A10431E4B1E4A8C469D
:1012E8000240184000091D4B1201024313400A40F6
:1012F80092089B0013431A0019491A480A400340F0
:101308005B0857001F433A0A174B52009B5A3F028B
:101318007B401A00AB432A409BB212021B0A1343BC
:101328000C4F0D4A01341A403B40674612011B0915
:1013380013430A4A1A403B4092009B081343194042
:101348001840490040080843B9E7C046FFFF0000BD
:10135800CCCCFFFFF0F0FFFF0F0F0000333300008D
:1013680055550000AAAAFFFF7C17000870B50C00AD
:101378000500FFF79DFF28552D19000A02346870F3
:10138800A0B270BD10B5002803D06C22002100F077
:10139800D7F810BDF7B504000F00019200281BD044
:1013A8000500060060352B886836002B11D0052112
:1013B800406EFFF7E1FB00280BD000232B80337031
:1013C8002B881F2B02D8E75401332B80019B6366BF
:1013D80002E03378002BF3D0F7BDF0B58FB00400EE
:1013E8000D000192002849D0002947D0002A45D095
:1013F80000231380030007002033029360373988E5
:10140800052935D90678012E32D1023989B2FFF77C
:101418004FFF3B88E3185A1E1278023B1B781202D2
:101428001343984224D16378A119D81EA21CB04254
:1014380008D9CE77802149420B43D377E31CDE7766
:10144800833110E06F46A08840BAB881B889E71C9C
:1014580084460138102813D9CE77802149420B439E
:101468008331D377F9770298FFF780FF019B1880C3
:101478002200002360326834138023700FB0F0BD5F
:10148800608840BA86B2102E04D8604630180138F9
:10149800102808D90120C877802149420B43D37707
:1014A8000223FB77CCE7698805AA1180A988A81CC4
:1014B8005180E98891802989D180E98A1181298B15
:1014C8005181698B9181A98BD181E98B11826989BD
:1014D8005182A9899182E989D182298A1183698AED
:1014E8005183E91CC77FC97F7F0089003943877F03
:1014F800281DC07F3943C0000143918329782C35CA
:10150800D18329780125AE401184601C0399C577E1
:10151800A01CC3774900E31CB6182200D977002322
:10152800233230880133050A9BB215705070023699
:1015380002329C45F5D12000033189B2203093E76F
:1015480030B50D001400010083070BD003000322FF
:1015580004E00D70013C0131134204D00133002C2A
:10156800F7D130BD0300032C22D9FF222A401102F3
:1015780089180A0489180F2C26D922091201D218B1
:10158800196059609960D96010339342F8D10F22DD
:10159800224094460C222240644609D062469208B2
:1015A8009200D21802C39342FCD10324624614402D
:1015B8001A19002CD5D01D7001339A42D1D01D7054
:1015C80001339A42F7D1CCE7A446E7E7F0B5C6461F
:1015D8000D00160000B5032A0DD80400711E002E58
:1015E80006D000230131EA5CE25401338B42FAD180
:1015F80080BCB846F0BD032402000A432100030062
:101608001140144232D1320004000F2E1ED9102787
:10161800BC462A003409013C2401A0460419A4440C
:1016280054685C6094689C60D468DC60146810320C
:101638001C6010336345F3D10F221C000C231035B6
:101648003240334045441600002BC7D06B586350D6
:101658000431531A032BF9D8032616409208013A8D
:10166800920004350434AD18A418B7E70400711EBD
:10167800B7E7C04600316253C4F5A697B988DBEADC
:101688007D4C1F2E4372211087B6E5D4FACB98A95A
:101698003E0F5C6D86B7E4D5427320113F0E5D6C3A
:1016A800FBCA99A8C5F4A796013063527C4D1E2F3A
:1016B800B889DAEB3D0C5F6EF9C89BAA84B5E6D70A
:1016C800407122137E4F1C2DBA8BD8E9C7F6A5941A
:1016D80003326150BB8AD9E87F4E1D2C023360511A
:1016E800C6F7A495F8C99AAB3C0D5E6F41702312FA
:1016F80085B4E7D67A4B1829BE8FDCEDC3F2A190EA
:101708000736655439085B6AFDCC9FAE80B1E2D3D9
:1017180044752617FCCD9EAF38095A6B45742716B9
:1017280081B0E3D2BF8EDDEC7B4A192806376455B9
:10173800C2F3A0914776251483B2E1D0FECF9CADC9
:101748003A0B586904356657C0F1A293BD8CDFEE99
:1017580079481B2AC1F0A3920534675678491A2B99
:10176800BC8DDEEF82B3E0D1467724153B0A596879
:10177800FFCE9DAC000005800F800A001B801E0074
:1017880014001180338036003C00398028002D80F9
:1017980027802200638066006C00698078007D8065
:1017A80077807200500055805F805A004B804E0051
:1017B80044004180C380C600CC00C980D800DD80C9
:1017C800D780D200F000F580FF80FA00EB80EE00B1
:1017D800E400E180A000A580AF80AA00BB80BE0025
:1017E800B400B180938096009C00998088008D8019
:1017F80087808200838186018C01898198019D817F
:1018080097819201B001B581BF81BA01AB81AE0168
:10181800A401A181E001E581EF81EA01FB81FE01DC
:10182800F401F181D381D601DC01D981C801CD81D0
:10183800C781C201400145814F814A015B815E0138
:1018480054015181738176017C01798168016D8130
:1018580067816201238126012C01298138013D819C
:1018680037813201100115811F811A010B810E0188
:1018780004010181038306030C03098318031D83F4
:1018880017831203300335833F833A032B832E03D8
:1018980024032183600365836F836A037B837E034C
:1018A80074037183538356035C03598348034D8340
:1018B80047834203C003C583CF83CA03DB83DE03A8
:1018C800D403D183F383F603FC03F983E803ED83A0
:1018D800E783E203A383A603AC03A983B803BD830C
:1018E800B783B203900395839F839A038B838E03F8
:1018F80084038183800285828F828A029B829E0272
:1019080094029182B382B602BC02B982A802AD8267
:10191800A782A202E382E602EC02E982F802FD82D3
:10192800F782F202D002D582DF82DA02CB82CE02BF
:10193800C402C182438246024C02498258025D8237
:1019480057825202700275827F827A026B826E021F
:1019580064026182200225822F822A023B823E0293
:1019680034023182138216021C02198208020D8287
:10197800078202020D0A53454E36362D4730333062
:101988002076312E300D0A0053454E3636206E6FC4
:10199800742064657465637465642E0D0A0053458C
:1019A8004E363620696E6974206661696C65642CF0
:1019B800207265747279696E672E2E2E0D0A005397
:1019C800454E3636204F4B2E205761726D696E6733
:1019D800207570203630732E2E2E0D0A0053454E7A
:1019E8003636207374617274206661696C65642E82
:1019F8000D0A0053454E3636206F66666C696E6573
:101A08002E0D0A0053454E3636207265636F6E6E92
:101A180065637465642E0D0A005B53454E36365D6A
:101A28002000504D312E30203A2000504D322E35B6
:101A3800203A2000504D342E30203A2000504D31AD
:101A480030203A20002075672F6D33207C2000520B
:101A580048203A200020255248207C200054656DFB
:101A680070203A200020E28483207C2000564F43D7
:101A7800203A20004E4F78203A20002070706D20C8
:101A880000434F32203A20005D0D0A005B45727218
:101A9800436E743D002D002E000000000100000080
:0C1AA8000A00000064000000E8030000D9
:0400000508000F459B
:00000001FF
